{
  "contractName": "Subjective",
  "abi": [
    {
      "inputs": [],
      "stateMutability": "nonpayable",
      "type": "constructor"
    },
    {
      "anonymous": false,
      "inputs": [
        {
          "indexed": false,
          "internalType": "address",
          "name": "_owner",
          "type": "address"
        },
        {
          "indexed": false,
          "internalType": "address",
          "name": "_second_party",
          "type": "address"
        },
        {
          "indexed": false,
          "internalType": "address",
          "name": "_third_party",
          "type": "address"
        },
        {
          "indexed": false,
          "internalType": "uint256",
          "name": "_index",
          "type": "uint256"
        }
      ],
      "name": "Deal",
      "type": "event"
    },
    {
      "inputs": [
        {
          "internalType": "address payable",
          "name": "_second_party",
          "type": "address"
        },
        {
          "internalType": "address payable",
          "name": "_third_party",
          "type": "address"
        },
        {
          "internalType": "bool",
          "name": "_is_seller",
          "type": "bool"
        },
        {
          "internalType": "uint256",
          "name": "_price",
          "type": "uint256"
        },
        {
          "internalType": "uint256",
          "name": "_not_delivered_penalty",
          "type": "uint256"
        },
        {
          "internalType": "uint256",
          "name": "_quotient",
          "type": "uint256"
        },
        {
          "internalType": "uint256",
          "name": "_max_evaluation",
          "type": "uint256"
        },
        {
          "internalType": "uint256",
          "name": "_upfront_time",
          "type": "uint256"
        },
        {
          "internalType": "uint256",
          "name": "_evaluation_time",
          "type": "uint256"
        },
        {
          "internalType": "bool",
          "name": "_pay_upfront",
          "type": "bool"
        },
        {
          "internalType": "uint256",
          "name": "_evaluation",
          "type": "uint256"
        }
      ],
      "name": "createContract",
      "outputs": [],
      "stateMutability": "payable",
      "type": "function",
      "payable": true
    },
    {
      "inputs": [
        {
          "internalType": "address",
          "name": "owner",
          "type": "address"
        },
        {
          "internalType": "uint256",
          "name": "index",
          "type": "uint256"
        }
      ],
      "name": "getContract",
      "outputs": [
        {
          "internalType": "bool",
          "name": "is_seller",
          "type": "bool"
        },
        {
          "internalType": "uint256",
          "name": "price",
          "type": "uint256"
        },
        {
          "internalType": "uint256",
          "name": "not_delivered_penalty",
          "type": "uint256"
        },
        {
          "internalType": "uint256",
          "name": "max_evaluation",
          "type": "uint256"
        },
        {
          "internalType": "uint256",
          "name": "quotient",
          "type": "uint256"
        }
      ],
      "stateMutability": "view",
      "type": "function",
      "constant": true
    },
    {
      "inputs": [
        {
          "internalType": "address",
          "name": "owner",
          "type": "address"
        },
        {
          "internalType": "uint256",
          "name": "index",
          "type": "uint256"
        }
      ],
      "name": "upfront",
      "outputs": [],
      "stateMutability": "payable",
      "type": "function",
      "payable": true
    },
    {
      "inputs": [
        {
          "internalType": "uint256",
          "name": "evaluation",
          "type": "uint256"
        },
        {
          "internalType": "bool",
          "name": "pay_upfront",
          "type": "bool"
        },
        {
          "internalType": "address",
          "name": "owner",
          "type": "address"
        },
        {
          "internalType": "uint256",
          "name": "index",
          "type": "uint256"
        }
      ],
      "name": "evaluate",
      "outputs": [],
      "stateMutability": "payable",
      "type": "function",
      "payable": true
    },
    {
      "inputs": [
        {
          "internalType": "address",
          "name": "owner",
          "type": "address"
        },
        {
          "internalType": "uint256",
          "name": "index",
          "type": "uint256"
        }
      ],
      "name": "withdraw",
      "outputs": [],
      "stateMutability": "payable",
      "type": "function",
      "payable": true
    }
  ],
  "bytecode": "0x608060405234801561001057600080fd5b50612e18806100206000396000f3fe60806040526004361061004a5760003560e01c806308bd8b751461004f5780632855c91c1461006b578063a42f576c14610087578063aad55726146100a3578063f3fef3a3146100e4575b600080fd5b6100696004803603810190610064919061202b565b610100565b005b6100856004803603810190610080919061215d565b610862565b005b6100a1600480360381019061009c919061219d565b610c63565b005b3480156100af57600080fd5b506100ca60048036038101906100c5919061215d565b611708565b6040516100db959493929190612222565b60405180910390f35b6100fe60048036038101906100f9919061215d565b6117ee565b005b62278d00841115610146576040517f08c379a000000000000000000000000000000000000000000000000000000000815260040161013d906122f8565b60405180910390fd5b6301e1338083111561018d576040517f08c379a00000000000000000000000000000000000000000000000000000000081526004016101849061238a565b60405180910390fd5b848111806101985750815b6101d7576040517f08c379a00000000000000000000000000000000000000000000000000000000081526004016101ce9061241c565b60405180910390fd5b6000808a156101eb573391508c90506101f2565b3390508c91505b6040518061026001604052808b81526020018a81526020018981526020018881526020018273ffffffffffffffffffffffffffffffffffffffff168152602001898c61023e919061249a565b8c61024991906124cb565b8152602001600015158152602001600081526020016000151581526020018373ffffffffffffffffffffffffffffffffffffffff168152602001898c61028f919061249a565b8b61029a91906124cb565b8152602001600015158152602001600081526020016000151581526020018d73ffffffffffffffffffffffffffffffffffffffff168152602001428152602001878152602001868152602001600015158152506000803373ffffffffffffffffffffffffffffffffffffffff1673ffffffffffffffffffffffffffffffffffffffff1681526020019081526020016000206000600160003373ffffffffffffffffffffffffffffffffffffffff1673ffffffffffffffffffffffffffffffffffffffff1681526020019081526020016000205481526020019081526020016000206000820151816000015560208201518160010155604082015181600201556060820151816003015560808201518160040160006101000a81548173ffffffffffffffffffffffffffffffffffffffff021916908373ffffffffffffffffffffffffffffffffffffffff16021790555060a0820151816005015560c08201518160060160006101000a81548160ff02191690831515021790555060e082015181600701556101008201518160080160006101000a81548160ff0219169083151502179055506101208201518160080160016101000a81548173ffffffffffffffffffffffffffffffffffffffff021916908373ffffffffffffffffffffffffffffffffffffffff160217905550610140820151816009015561016082015181600a0160006101000a81548160ff02191690831515021790555061018082015181600b01556101a082015181600c0160006101000a81548160ff0219169083151502179055506101c082015181600c0160016101000a81548173ffffffffffffffffffffffffffffffffffffffff021916908373ffffffffffffffffffffffffffffffffffffffff1602179055506101e082015181600d015561020082015181600e015561022082015181600f01556102408201518160100160006101000a81548160ff0219169083151502179055509050507ffb331bf0a012da19de1d12a9bfbc6969753073888e657df0652ac2099b915dec338e8e600160003373ffffffffffffffffffffffffffffffffffffffff1673ffffffffffffffffffffffffffffffffffffffff168152602001908152602001600020546040516105e0949392919061258f565b60405180910390a183156107fe5760008060003373ffffffffffffffffffffffffffffffffffffffff1673ffffffffffffffffffffffffffffffffffffffff1681526020019081526020016000206000600160003373ffffffffffffffffffffffffffffffffffffffff1673ffffffffffffffffffffffffffffffffffffffff16815260200190815260200160002054815260200190815260200160002090508173ffffffffffffffffffffffffffffffffffffffff163373ffffffffffffffffffffffffffffffffffffffff160361071b57806005015434146106f9576040517f08c379a00000000000000000000000000000000000000000000000000000000081526004016106f090612620565b60405180910390fd5b60018160060160006101000a81548160ff02191690831515021790555061077f565b80600901543414610761576040517f08c379a00000000000000000000000000000000000000000000000000000000081526004016107589061268c565b60405180910390fd5b600181600a0160006101000a81548160ff0219169083151502179055505b8784116107fc578173ffffffffffffffffffffffffffffffffffffffff163373ffffffffffffffffffffffffffffffffffffffff16036107dc57838160070181905550600115158160080160009054906101000a905050506107fb565b8381600b01819055506001151581600c0160009054906101000a905050505b5b505b600160003373ffffffffffffffffffffffffffffffffffffffff1673ffffffffffffffffffffffffffffffffffffffff168152602001908152602001600020600081548092919061084e906126ac565b919050555050505050505050505050505050565b81816000808373ffffffffffffffffffffffffffffffffffffffff1673ffffffffffffffffffffffffffffffffffffffff168152602001908152602001600020600082815260200190815260200160002060040160009054906101000a900473ffffffffffffffffffffffffffffffffffffffff1673ffffffffffffffffffffffffffffffffffffffff163373ffffffffffffffffffffffffffffffffffffffff1614806109ad57506000808373ffffffffffffffffffffffffffffffffffffffff1673ffffffffffffffffffffffffffffffffffffffff168152602001908152602001600020600082815260200190815260200160002060080160019054906101000a900473ffffffffffffffffffffffffffffffffffffffff1673ffffffffffffffffffffffffffffffffffffffff163373ffffffffffffffffffffffffffffffffffffffff16145b6109ec576040517f08c379a00000000000000000000000000000000000000000000000000000000081526004016109e390612766565b60405180910390fd5b60008060008673ffffffffffffffffffffffffffffffffffffffff1673ffffffffffffffffffffffffffffffffffffffff1681526020019081526020016000206000858152602001908152602001600020905080600e015481600d0154610a5391906124cb565b421115610a95576040517f08c379a0000000000000000000000000000000000000000000000000000000008152600401610a8c906127d2565b60405180910390fd5b8060040160009054906101000a900473ffffffffffffffffffffffffffffffffffffffff1673ffffffffffffffffffffffffffffffffffffffff163373ffffffffffffffffffffffffffffffffffffffff1603610ba6578060060160009054906101000a900460ff1615610b3e576040517f08c379a0000000000000000000000000000000000000000000000000000000008152600401610b359061283e565b60405180910390fd5b80600501543414610b84576040517f08c379a0000000000000000000000000000000000000000000000000000000008152600401610b7b90612620565b60405180910390fd5b60018160060160006101000a81548160ff021916908315150217905550610c5c565b80600a0160009054906101000a900460ff1615610bf8576040517f08c379a0000000000000000000000000000000000000000000000000000000008152600401610bef906128aa565b60405180910390fd5b80600901543414610c3e576040517f08c379a0000000000000000000000000000000000000000000000000000000008152600401610c359061268c565b60405180910390fd5b600181600a0160006101000a81548160ff0219169083151502179055505b5050505050565b81816000808373ffffffffffffffffffffffffffffffffffffffff1673ffffffffffffffffffffffffffffffffffffffff168152602001908152602001600020600082815260200190815260200160002060040160009054906101000a900473ffffffffffffffffffffffffffffffffffffffff1673ffffffffffffffffffffffffffffffffffffffff163373ffffffffffffffffffffffffffffffffffffffff161480610dae57506000808373ffffffffffffffffffffffffffffffffffffffff1673ffffffffffffffffffffffffffffffffffffffff168152602001908152602001600020600082815260200190815260200160002060080160019054906101000a900473ffffffffffffffffffffffffffffffffffffffff1673ffffffffffffffffffffffffffffffffffffffff163373ffffffffffffffffffffffffffffffffffffffff16145b610ded576040517f08c379a0000000000000000000000000000000000000000000000000000000008152600401610de490612766565b60405180910390fd5b60008060008673ffffffffffffffffffffffffffffffffffffffff1673ffffffffffffffffffffffffffffffffffffffff1681526020019081526020016000206000858152602001908152602001600020905080600f015481600d0154610e5491906124cb565b421115610e96576040517f08c379a0000000000000000000000000000000000000000000000000000000008152600401610e8d90612916565b60405180910390fd5b8060030154871115610edd576040517f08c379a0000000000000000000000000000000000000000000000000000000008152600401610ed4906129a8565b60405180910390fd5b85156111015780600e015481600d0154610ef791906124cb565b421115610f39576040517f08c379a0000000000000000000000000000000000000000000000000000000008152600401610f30906127d2565b60405180910390fd5b8060040160009054906101000a900473ffffffffffffffffffffffffffffffffffffffff1673ffffffffffffffffffffffffffffffffffffffff163373ffffffffffffffffffffffffffffffffffffffff160361104a578060060160009054906101000a900460ff1615610fe2576040517f08c379a0000000000000000000000000000000000000000000000000000000008152600401610fd99061283e565b60405180910390fd5b80600501543414611028576040517f08c379a000000000000000000000000000000000000000000000000000000000815260040161101f90612620565b60405180910390fd5b60018160060160006101000a81548160ff021916908315150217905550611100565b80600a0160009054906101000a900460ff161561109c576040517f08c379a0000000000000000000000000000000000000000000000000000000008152600401611093906128aa565b60405180910390fd5b806009015434146110e2576040517f08c379a00000000000000000000000000000000000000000000000000000000081526004016110d99061268c565b60405180910390fd5b600181600a0160006101000a81548160ff0219169083151502179055505b5b8060080160019054906101000a900473ffffffffffffffffffffffffffffffffffffffff1673ffffffffffffffffffffffffffffffffffffffff163373ffffffffffffffffffffffffffffffffffffffff16036112265780600a0160009054906101000a900460ff166111a9576040517f08c379a00000000000000000000000000000000000000000000000000000000081526004016111a09061241c565b60405180910390fd5b80600c0160009054906101000a900460ff16156111fb576040517f08c379a00000000000000000000000000000000000000000000000000000000081526004016111f290612a14565b60405180910390fd5b8681600b0181905550600181600c0160006101000a81548160ff0219169083151502179055506112f0565b8060060160009054906101000a900460ff16611277576040517f08c379a000000000000000000000000000000000000000000000000000000000815260040161126e9061241c565b60405180910390fd5b8060080160009054906101000a900460ff16156112c9576040517f08c379a00000000000000000000000000000000000000000000000000000000081526004016112c090612a80565b60405180910390fd5b86816007018190555060018160080160006101000a81548160ff0219169083151502179055505b80600c0160009054906101000a900460ff16801561131c57508060080160009054906101000a900460ff165b156116ff57600081600b0154826007015410611498576002826003015483600b0154846007015461134d91906124cb565b8460010154856000015461136191906124cb565b61136b9190612aa0565b611375919061249a565b61137f919061249a565b90508160080160019054906101000a900473ffffffffffffffffffffffffffffffffffffffff1673ffffffffffffffffffffffffffffffffffffffff166108fc83600101548385600901546113d491906124cb565b6113de9190612afa565b9081150290604051600060405180830381858888f19350505050158015611409573d6000803e3d6000fd5b508160040160009054906101000a900473ffffffffffffffffffffffffffffffffffffffff1673ffffffffffffffffffffffffffffffffffffffff166108fc836001015483856005015461145d9190612afa565b61146791906124cb565b9081150290604051600060405180830381858888f19350505050158015611492573d6000803e3d6000fd5b506116e0565b81600201548260030154836007015484600b01546114b69190612afa565b846001015485600001546114ca91906124cb565b6114d49190612aa0565b6114de919061249a565b6114e8919061249a565b90508160080160019054906101000a900473ffffffffffffffffffffffffffffffffffffffff1673ffffffffffffffffffffffffffffffffffffffff166108fc836001015483856003015486600701548760010154886000015461154c91906124cb565b6115569190612aa0565b611560919061249a565b866009015461156f91906124cb565b6115799190612afa565b6115839190612afa565b9081150290604051600060405180830381858888f193505050501580156115ae573d6000803e3d6000fd5b508160040160009054906101000a900473ffffffffffffffffffffffffffffffffffffffff1673ffffffffffffffffffffffffffffffffffffffff166108fc836001015483856003015486600b01548760010154886000015461161191906124cb565b61161b9190612aa0565b611625919061249a565b86600501546116349190612afa565b61163e9190612afa565b61164891906124cb565b9081150290604051600060405180830381858888f19350505050158015611673573d6000803e3d6000fd5b5081600c0160019054906101000a900473ffffffffffffffffffffffffffffffffffffffff1673ffffffffffffffffffffffffffffffffffffffff166108fc479081150290604051600060405180830381858888f193505050501580156116de573d6000803e3d6000fd5b505b60018260100160006101000a81548160ff021916908315150217905550505b50505050505050565b6000806000806000806000808973ffffffffffffffffffffffffffffffffffffffff1673ffffffffffffffffffffffffffffffffffffffff168152602001908152602001600020600088815260200190815260200160002090508060080160019054906101000a900473ffffffffffffffffffffffffffffffffffffffff1673ffffffffffffffffffffffffffffffffffffffff163373ffffffffffffffffffffffffffffffffffffffff16036117c257600195506117c7565b600095505b80600001549450806001015493508060030154925080600201549150509295509295909350565b60008060008473ffffffffffffffffffffffffffffffffffffffff1673ffffffffffffffffffffffffffffffffffffffff168152602001908152602001600020600083815260200190815260200160002090508060100160009054906101000a900460ff1615611893576040517f08c379a000000000000000000000000000000000000000000000000000000000815260040161188a90612b7a565b60405180910390fd5b8060040160009054906101000a900473ffffffffffffffffffffffffffffffffffffffff1673ffffffffffffffffffffffffffffffffffffffff163373ffffffffffffffffffffffffffffffffffffffff16148061194057508060080160019054906101000a900473ffffffffffffffffffffffffffffffffffffffff1673ffffffffffffffffffffffffffffffffffffffff163373ffffffffffffffffffffffffffffffffffffffff16145b8061199a575080600c0160019054906101000a900473ffffffffffffffffffffffffffffffffffffffff1673ffffffffffffffffffffffffffffffffffffffff163373ffffffffffffffffffffffffffffffffffffffff16145b6119d9576040517f08c379a00000000000000000000000000000000000000000000000000000000081526004016119d090612c0c565b60405180910390fd5b80600c0160019054906101000a900473ffffffffffffffffffffffffffffffffffffffff1673ffffffffffffffffffffffffffffffffffffffff163373ffffffffffffffffffffffffffffffffffffffff1603611b035762093a8081600f015482600d0154611a4891906124cb565b611a5291906124cb565b4211611a93576040517f08c379a0000000000000000000000000000000000000000000000000000000008152600401611a8a90612c9e565b60405180910390fd5b80600c0160019054906101000a900473ffffffffffffffffffffffffffffffffffffffff1673ffffffffffffffffffffffffffffffffffffffff166108fc479081150290604051600060405180830381858888f19350505050158015611afd573d6000803e3d6000fd5b50611f38565b8060060160009054906101000a900460ff168015611b30575080600a0160009054906101000a900460ff16155b15611bfe5780600e015481600d0154611b4991906124cb565b4211611b8a576040517f08c379a0000000000000000000000000000000000000000000000000000000008152600401611b8190612d30565b60405180910390fd5b8060040160009054906101000a900473ffffffffffffffffffffffffffffffffffffffff1673ffffffffffffffffffffffffffffffffffffffff166108fc82600501549081150290604051600060405180830381858888f19350505050158015611bf8573d6000803e3d6000fd5b50611f37565b8060060160009054906101000a900460ff16158015611c2b575080600a0160009054906101000a900460ff165b15611cf95780600e015481600d0154611c4491906124cb565b4211611c85576040517f08c379a0000000000000000000000000000000000000000000000000000000008152600401611c7c90612d30565b60405180910390fd5b8060080160019054906101000a900473ffffffffffffffffffffffffffffffffffffffff1673ffffffffffffffffffffffffffffffffffffffff166108fc82600901549081150290604051600060405180830381858888f19350505050158015611cf3573d6000803e3d6000fd5b50611f36565b8060060160009054906101000a900460ff168015611d25575080600a0160009054906101000a900460ff165b15611f355780600f015481600d0154611d3e91906124cb565b4211611d7f576040517f08c379a0000000000000000000000000000000000000000000000000000000008152600401611d7690612dc2565b60405180910390fd5b8060080160019054906101000a900473ffffffffffffffffffffffffffffffffffffffff1673ffffffffffffffffffffffffffffffffffffffff163373ffffffffffffffffffffffffffffffffffffffff1603611e59578060080160019054906101000a900473ffffffffffffffffffffffffffffffffffffffff1673ffffffffffffffffffffffffffffffffffffffff166108fc82600001548360090154611e2891906124cb565b9081150290604051600060405180830381858888f19350505050158015611e53573d6000803e3d6000fd5b50611ec9565b8060040160009054906101000a900473ffffffffffffffffffffffffffffffffffffffff1673ffffffffffffffffffffffffffffffffffffffff166108fc82600501549081150290604051600060405180830381858888f19350505050158015611ec7573d6000803e3d6000fd5b505b80600c0160019054906101000a900473ffffffffffffffffffffffffffffffffffffffff1673ffffffffffffffffffffffffffffffffffffffff166108fc479081150290604051600060405180830381858888f19350505050158015611f33573d6000803e3d6000fd5b505b5b5b5b60018160100160006101000a81548160ff021916908315150217905550505050565b600080fd5b600073ffffffffffffffffffffffffffffffffffffffff82169050919050565b6000611f8a82611f5f565b9050919050565b611f9a81611f7f565b8114611fa557600080fd5b50565b600081359050611fb781611f91565b92915050565b60008115159050919050565b611fd281611fbd565b8114611fdd57600080fd5b50565b600081359050611fef81611fc9565b92915050565b6000819050919050565b61200881611ff5565b811461201357600080fd5b50565b60008135905061202581611fff565b92915050565b60008060008060008060008060008060006101608c8e03121561205157612050611f5a565b5b600061205f8e828f01611fa8565b9b505060206120708e828f01611fa8565b9a505060406120818e828f01611fe0565b99505060606120928e828f01612016565b98505060806120a38e828f01612016565b97505060a06120b48e828f01612016565b96505060c06120c58e828f01612016565b95505060e06120d68e828f01612016565b9450506101006120e88e828f01612016565b9350506101206120fa8e828f01611fe0565b92505061014061210c8e828f01612016565b9150509295989b509295989b9093969950565b600061212a82611f5f565b9050919050565b61213a8161211f565b811461214557600080fd5b50565b60008135905061215781612131565b92915050565b6000806040838503121561217457612173611f5a565b5b600061218285828601612148565b925050602061219385828601612016565b9150509250929050565b600080600080608085870312156121b7576121b6611f5a565b5b60006121c587828801612016565b94505060206121d687828801611fe0565b93505060406121e787828801612148565b92505060606121f887828801612016565b91505092959194509250565b61220d81611fbd565b82525050565b61221c81611ff5565b82525050565b600060a0820190506122376000830188612204565b6122446020830187612213565b6122516040830186612213565b61225e6060830185612213565b61226b6080830184612213565b9695505050505050565b600082825260208201905092915050565b7f54696d6520746f2070617920757066726f6e742076616c75652073686f756c6460008201527f20626520736d616c6c6572207468616e20333020646179732e00000000000000602082015250565b60006122e2603983612275565b91506122ed82612286565b604082019050919050565b60006020820190508181036000830152612311816122d5565b9050919050565b7f54696d6520746f206576616c756174652073686f756c6420626520736d616c6c60008201527f6572207468616e2033363520646179732e000000000000000000000000000000602082015250565b6000612374603183612275565b915061237f82612318565b604082019050919050565b600060208201905081810360008301526123a381612367565b9050919050565b7f557066726f6e74206d757374206265207061796564206265666f72652065766160008201527f6c756174696f6e2e000000000000000000000000000000000000000000000000602082015250565b6000612406602883612275565b9150612411826123aa565b604082019050919050565b60006020820190508181036000830152612435816123f9565b9050919050565b7f4e487b7100000000000000000000000000000000000000000000000000000000600052601260045260246000fd5b7f4e487b7100000000000000000000000000000000000000000000000000000000600052601160045260246000fd5b60006124a582611ff5565b91506124b083611ff5565b9250826124c0576124bf61243c565b5b828204905092915050565b60006124d682611ff5565b91506124e183611ff5565b9250827fffffffffffffffffffffffffffffffffffffffffffffffffffffffffffffffff038211156125165761251561246b565b5b828201905092915050565b61252a8161211f565b82525050565b6000819050919050565b600061255561255061254b84611f5f565b612530565b611f5f565b9050919050565b60006125678261253a565b9050919050565b60006125798261255c565b9050919050565b6125898161256e565b82525050565b60006080820190506125a46000830187612521565b6125b16020830186612580565b6125be6040830185612580565b6125cb6060830184612213565b95945050505050565b7f496e636f727265637420627579657220757066726f6e742076616c75652e0000600082015250565b600061260a601e83612275565b9150612615826125d4565b602082019050919050565b60006020820190508181036000830152612639816125fd565b9050919050565b7f496e636f72726563742073656c6c657220757066726f6e742076616c75652e00600082015250565b6000612676601f83612275565b915061268182612640565b602082019050919050565b600060208201905081810360008301526126a581612669565b9050919050565b60006126b782611ff5565b91507fffffffffffffffffffffffffffffffffffffffffffffffffffffffffffffffff82036126e9576126e861246b565b5b600182019050919050565b7f4f6e6c79207468652074776f207061727469657320696e766f6c76656420617260008201527f6520616c6c6f7765642e00000000000000000000000000000000000000000000602082015250565b6000612750602a83612275565b915061275b826126f4565b604082019050919050565b6000602082019050818103600083015261277f81612743565b9050919050565b7f557066726f6e7420646561646c696e65207375727061737365642e0000000000600082015250565b60006127bc601b83612275565b91506127c782612786565b602082019050919050565b600060208201905081810360008301526127eb816127af565b9050919050565b7f427579657220616c726561647920706179656420757066726f6e742e00000000600082015250565b6000612828601c83612275565b9150612833826127f2565b602082019050919050565b600060208201905081810360008301526128578161281b565b9050919050565b7f53656c6c657220616c726561647920706179656420757066726f6e742e000000600082015250565b6000612894601d83612275565b915061289f8261285e565b602082019050919050565b600060208201905081810360008301526128c381612887565b9050919050565b7f4576616c756174696f6e20646561646c696e65207375727061737365642e0000600082015250565b6000612900601e83612275565b915061290b826128ca565b602082019050919050565b6000602082019050818103600083015261292f816128f3565b9050919050565b7f4576616c756174696f6e20626967676572207468616e206d6178206576616c7560008201527f6174696f6e2e0000000000000000000000000000000000000000000000000000602082015250565b6000612992602683612275565b915061299d82612936565b604082019050919050565b600060208201905081810360008301526129c181612985565b9050919050565b7f53656c6c657220616c7265616479206576616c75617465642e00000000000000600082015250565b60006129fe601983612275565b9150612a09826129c8565b602082019050919050565b60006020820190508181036000830152612a2d816129f1565b9050919050565b7f427579657220616c7265616479206576616c75617465642e0000000000000000600082015250565b6000612a6a601883612275565b9150612a7582612a34565b602082019050919050565b60006020820190508181036000830152612a9981612a5d565b9050919050565b6000612aab82611ff5565b9150612ab683611ff5565b9250817fffffffffffffffffffffffffffffffffffffffffffffffffffffffffffffffff0483118215151615612aef57612aee61246b565b5b828202905092915050565b6000612b0582611ff5565b9150612b1083611ff5565b925082821015612b2357612b2261246b565b5b828203905092915050565b7f4d6f6e657920616c72656164792077697468647261776e2e0000000000000000600082015250565b6000612b64601883612275565b9150612b6f82612b2e565b602082019050919050565b60006020820190508181036000830152612b9381612b57565b9050919050565b7f4f6e6c792074686520746872656520706172746965732061726520616c6c6f7760008201527f656420746f2077697468647261772e0000000000000000000000000000000000602082015250565b6000612bf6602f83612275565b9150612c0182612b9a565b604082019050919050565b60006020820190508181036000830152612c2581612be9565b9050919050565b7f5468697264207061727479206d757374207761697420756e74696c207468652060008201527f656e64206f6620746865206465616c2e00000000000000000000000000000000602082015250565b6000612c88603083612275565b9150612c9382612c2c565b604082019050919050565b60006020820190508181036000830152612cb781612c7b565b9050919050565b7f557066726f6e742074696d65206973206e6f74207965742066696e697368656460008201527f2e00000000000000000000000000000000000000000000000000000000000000602082015250565b6000612d1a602183612275565b9150612d2582612cbe565b604082019050919050565b60006020820190508181036000830152612d4981612d0d565b9050919050565b7f4576616c756174696f6e2074696d65206973206e6f74207965742066696e697360008201527f6865642e00000000000000000000000000000000000000000000000000000000602082015250565b6000612dac602483612275565b9150612db782612d50565b604082019050919050565b60006020820190508181036000830152612ddb81612d9f565b905091905056fea26469706673582212206563903012139d2e0c2cdd62dfca511b9f81ecc92e44437bfe688854cc6c556264736f6c634300080d0033",
  "immutableReferences": {},
  "source": "// SPDX-License-Identifier: MIT\n\npragma solidity >=0.7.0 <0.9.0;\n\ncontract Subjective {\n\n    struct Contract {\n        uint256 price;\n        uint256 not_delivered_penalty;\n        uint quotient;\n        uint max_evaluation;\n\n        address payable buyer;\n\n        uint256 buyer_upfront;\n        bool buyer_payed_upfront;\n\n        uint buyer_evaluation;\n        bool buyer_evaluated;\n\n        address payable seller;\n\n        uint256 seller_upfront;\n        bool seller_payed_upfront;\n\n        uint seller_auto_evaluation;\n        bool seller_evaluated;\n\n        address payable third_party;\n\n        uint256 start_time;\n        uint256 upfront_time;\n        uint256 evaluation_time;\n\n        bool withdrawn; \n    }\n\n    mapping(address => mapping(uint => Contract)) owners;\n    mapping(address => uint) owners_contract_count; //if it doesn't exist yet, it maps to 0\n\n    event Deal(address _owner, address _second_party, address _third_party, uint _index);\n\n    constructor(){}\n\n    modifier OnlyTwoParties(address owner,uint index) {\n        require(msg.sender == owners[owner][index].buyer || msg.sender == owners[owner][index].seller,\"Only the two parties involved are allowed.\");\n        _;\n    }\n\n    function createContract(address payable _second_party, address payable _third_party,bool _is_seller,\n        uint256 _price, uint256 _not_delivered_penalty, uint _quotient, uint _max_evaluation, \n        uint256 _upfront_time, uint256 _evaluation_time, bool _pay_upfront, uint _evaluation) public payable{\n        \n        require(_upfront_time <= 30 days,\"Time to pay upfront value should be smaller than 30 days.\");\n        require(_evaluation_time <= 365 days,\"Time to evaluate should be smaller than 365 days.\");\n        require(_evaluation > _max_evaluation || _pay_upfront,\"Upfront must be payed before evaluation.\");\n\n        address payable _seller;\n        address payable _buyer;\n        if(_is_seller) {\n            _seller = payable(msg.sender);\n            _buyer = _second_party;\n        }\n        else{\n            _buyer = payable(msg.sender);\n            _seller = _second_party;\n        }\n\n        owners[msg.sender][owners_contract_count[msg.sender]] = Contract(\n            _price,\n            _not_delivered_penalty,\n            _quotient,\n            _max_evaluation,\n            _buyer,\n            _price+_price/_quotient,\n            false,\n            0,\n            false,\n            _seller,\n            _not_delivered_penalty+_price/_quotient,\n            false,\n            0,\n            false,\n            _third_party,\n            block.timestamp,\n            _upfront_time,\n            _evaluation_time,\n            false\n        );\n\n        emit Deal(msg.sender,_second_party,_third_party,owners_contract_count[msg.sender]);\n        \n        //copied from upfront function\n        if(_pay_upfront){\n            Contract storage c = owners[msg.sender][owners_contract_count[msg.sender]];\n            if(msg.sender == _buyer){\n                require(msg.value == c.buyer_upfront,\"Incorrect buyer upfront value.\");\n                c.buyer_payed_upfront = true;\n            }else{\n                require(msg.value == c.seller_upfront,\"Incorrect seller upfront value.\");\n                c.seller_payed_upfront = true;   \n            }\n            if(_evaluation <= _max_evaluation){\n                if(msg.sender == _buyer){\n                    c.buyer_evaluation = _evaluation;\n                    c.buyer_evaluated == true;\n                }else{\n                    c.seller_auto_evaluation = _evaluation;\n                    c.seller_evaluated == true;\n                }\n            }\n        }\n\n        owners_contract_count[msg.sender]++;\n\n    }\n\n    function getContract(address owner,uint index) public view returns (bool is_seller, uint256 price, uint256 not_delivered_penalty, uint max_evaluation, uint quotient){\n        Contract storage c = owners[owner][index];\n        if(msg.sender == c.seller)\n            is_seller = true;\n        else is_seller = false;\n\n        price = c.price;\n        not_delivered_penalty = c.not_delivered_penalty;\n        max_evaluation = c.max_evaluation;\n        quotient = c.quotient;\n    }\n\n    function upfront(address owner,uint index) public payable OnlyTwoParties(owner,index) {\n        \n        Contract storage c = owners[owner][index];\n        require(block.timestamp <= c.start_time+c.upfront_time,\"Upfront deadline surpassed.\");\n        \n        if(msg.sender == c.buyer){\n            require(!c.buyer_payed_upfront,\"Buyer already payed upfront.\");\n            require(msg.value == c.buyer_upfront,\"Incorrect buyer upfront value.\");\n            c.buyer_payed_upfront = true;\n        }\n        else{\n            require(!c.seller_payed_upfront,\"Seller already payed upfront.\");\n            require(msg.value == c.seller_upfront,\"Incorrect seller upfront value.\");\n            c.seller_payed_upfront = true;\n        }\n    }\n\n    function evaluate(uint evaluation, bool pay_upfront, address owner,uint index) public OnlyTwoParties(owner,index) payable{\n        \n        Contract storage c = owners[owner][index];\n\n        require(block.timestamp <= c.start_time+c.evaluation_time,\"Evaluation deadline surpassed.\");\n        require(evaluation <= c.max_evaluation,\"Evaluation bigger than max evaluation.\");\n\n       \n        //copied from upfront function\n        if(pay_upfront){\n            require(block.timestamp <= c.start_time+c.upfront_time,\"Upfront deadline surpassed.\");\n            \n            if(msg.sender == c.buyer){\n                require(!c.buyer_payed_upfront,\"Buyer already payed upfront.\");\n                require(msg.value == c.buyer_upfront,\"Incorrect buyer upfront value.\");\n                c.buyer_payed_upfront = true;\n            }\n            else{\n                require(!c.seller_payed_upfront,\"Seller already payed upfront.\");\n                require(msg.value == c.seller_upfront,\"Incorrect seller upfront value.\");\n                c.seller_payed_upfront = true;\n            }\n        }\n        \n       \n        if(msg.sender == c.seller){\n            require(c.seller_payed_upfront,\"Upfront must be payed before evaluation.\");\n            require(!c.seller_evaluated,\"Seller already evaluated.\");\n            c.seller_auto_evaluation = evaluation;\n            c.seller_evaluated = true;\n        }\n        else{\n            require(c.buyer_payed_upfront,\"Upfront must be payed before evaluation.\");\n            require(!c.buyer_evaluated,\"Buyer already evaluated.\");\n            c.buyer_evaluation = evaluation;\n            c.buyer_evaluated = true;\n        }\n        if(c.seller_evaluated && c.buyer_evaluated){\n            uint amount;\n            if(c.buyer_evaluation >= c.seller_auto_evaluation){\n                amount = (c.price+c.not_delivered_penalty)*(c.buyer_evaluation+c.seller_auto_evaluation)/c.max_evaluation/2;\n                c.seller.transfer(c.seller_upfront+amount-c.not_delivered_penalty);\n                c.buyer.transfer(c.buyer_upfront-amount+c.not_delivered_penalty);\n            }\n            else{\n                amount = (c.price+c.not_delivered_penalty)*(c.seller_auto_evaluation-c.buyer_evaluation)/c.max_evaluation/c.quotient;\n                c.seller.transfer(c.seller_upfront+(c.price+c.not_delivered_penalty)*c.buyer_evaluation/c.max_evaluation-amount-c.not_delivered_penalty);\n                c.buyer.transfer(c.buyer_upfront-(c.price+c.not_delivered_penalty)*c.seller_auto_evaluation/c.max_evaluation-amount+c.not_delivered_penalty);\n                c.third_party.transfer(address(this).balance);\n            }\n            c.withdrawn = true;\n        }\n    }\n\n    function withdraw(address owner,uint index) public payable{\n\n        Contract storage c = owners[owner][index];\n\n        require(!c.withdrawn,\"Money already withdrawn.\");\n        require(msg.sender == c.buyer || msg.sender == c.seller || msg.sender == c.third_party,\n            \"Only the three parties are allowed to withdraw.\");\n\n        if(msg.sender == c.third_party){\n            require(block.timestamp > c.start_time+c.evaluation_time+7 days,\"Third party must wait until the end of the deal.\");\n            c.third_party.transfer(address(this).balance);\n        }\n        else if(c.buyer_payed_upfront && !c.seller_payed_upfront){\n            require(block.timestamp > c.start_time+c.upfront_time,\"Upfront time is not yet finished.\");\n            c.buyer.transfer(c.buyer_upfront);\n        }\n        else if(!c.buyer_payed_upfront && c.seller_payed_upfront){\n            require(block.timestamp > c.start_time+c.upfront_time,\"Upfront time is not yet finished.\");\n            c.seller.transfer(c.seller_upfront);\n        }\n        else if(c.buyer_payed_upfront && c.seller_payed_upfront){\n            require(block.timestamp > c.start_time+c.evaluation_time,\"Evaluation time is not yet finished.\");\n            \n            if(msg.sender == c.seller){\n                c.seller.transfer(c.seller_upfront+c.price);\n            }\n            else{\n                c.buyer.transfer(c.buyer_upfront);\n            }\n            c.third_party.transfer(address(this).balance);\n        }\n        c.withdrawn = true;\n    }\n}\n",
  "sourcePath": "/home/pedro/SubjectiveCrypto/Subjective/contracts/Subjective.sol",
  "compiler": {
    "name": "solc",
    "version": "0.8.13+commit.abaa5c0e.Emscripten.clang"
  },
  "schemaVersion": "3.4.3",
  "updatedAt": "2022-03-29T12:25:26.285Z",
  "networkType": "ethereum",
  "devdoc": {
    "kind": "dev",
    "methods": {},
    "version": 1
  },
  "userdoc": {
    "kind": "user",
    "methods": {},
    "version": 1
  }
}